{
  "contractName": "Academy",
  "abi": [
    {
      "constant": true,
      "inputs": [],
      "name": "name",
      "outputs": [
        {
          "name": "",
          "type": "string"
        }
      ],
      "payable": false,
      "stateMutability": "view",
      "type": "function"
    },
    {
      "constant": true,
      "inputs": [
        {
          "name": "",
          "type": "address"
        }
      ],
      "name": "graduates",
      "outputs": [
        {
          "name": "email",
          "type": "string"
        },
        {
          "name": "fullname",
          "type": "string"
        },
        {
          "name": "enrolled",
          "type": "bool"
        }
      ],
      "payable": false,
      "stateMutability": "view",
      "type": "function"
    },
    {
      "constant": false,
      "inputs": [
        {
          "name": "_email",
          "type": "string"
        },
        {
          "name": "_fullname",
          "type": "string"
        }
      ],
      "name": "enroll",
      "outputs": [],
      "payable": false,
      "stateMutability": "nonpayable",
      "type": "function"
    },
    {
      "constant": true,
      "inputs": [
        {
          "name": "",
          "type": "address"
        }
      ],
      "name": "students",
      "outputs": [
        {
          "name": "email",
          "type": "string"
        },
        {
          "name": "fullname",
          "type": "string"
        },
        {
          "name": "enrolled",
          "type": "bool"
        }
      ],
      "payable": false,
      "stateMutability": "view",
      "type": "function"
    },
    {
      "constant": false,
      "inputs": [
        {
          "name": "_student",
          "type": "address"
        }
      ],
      "name": "graduate",
      "outputs": [],
      "payable": false,
      "stateMutability": "nonpayable",
      "type": "function"
    },
    {
      "inputs": [
        {
          "name": "_name",
          "type": "string"
        }
      ],
      "payable": false,
      "stateMutability": "nonpayable",
      "type": "constructor"
    },
    {
      "anonymous": false,
      "inputs": [
        {
          "indexed": false,
          "name": "student",
          "type": "address"
        }
      ],
      "name": "Enroll",
      "type": "event"
    },
    {
      "anonymous": false,
      "inputs": [
        {
          "indexed": false,
          "name": "student",
          "type": "address"
        }
      ],
      "name": "Graduate",
      "type": "event"
    }
  ],
  "bytecode": "0x6060604052341561000f57600080fd5b604051610c03380380610c03833981016040528080518201919050508060009080519060200190610041929190610048565b50506100ed565b828054600181600116156101000203166002900490600052602060002090601f016020900481019282601f1061008957805160ff19168380011785556100b7565b828001600101855582156100b7579182015b828111156100b657825182559160200191906001019061009b565b5b5090506100c491906100c8565b5090565b6100ea91905b808211156100e65760008160009055506001016100ce565b5090565b90565b610b07806100fc6000396000f30060606040526004361061006d576000357c0100000000000000000000000000000000000000000000000000000000900463ffffffff16806306fdde0314610072578063178f14a91461010057806395bec39514610263578063a6c807a914610303578063ff6d8d0514610466575b600080fd5b341561007d57600080fd5b61008561049f565b6040518080602001828103825283818151815260200191508051906020019080838360005b838110156100c55780820151818401526020810190506100aa565b50505050905090810190601f1680156100f25780820380516001836020036101000a031916815260200191505b509250505060405180910390f35b341561010b57600080fd5b610137600480803573ffffffffffffffffffffffffffffffffffffffff1690602001909190505061053d565b604051808060200180602001841515151581526020018381038352868181546001816001161561010002031660029004815260200191508054600181600116156101000203166002900480156101ce5780601f106101a3576101008083540402835291602001916101ce565b820191906000526020600020905b8154815290600101906020018083116101b157829003601f168201915b50508381038252858181546001816001161561010002031660029004815260200191508054600181600116156101000203166002900480156102515780601f1061022657610100808354040283529160200191610251565b820191906000526020600020905b81548152906001019060200180831161023457829003601f168201915b50509550505050505060405180910390f35b341561026e57600080fd5b610301600480803590602001908201803590602001908080601f0160208091040260200160405190810160405280939291908181526020018383808284378201915050505050509190803590602001908201803590602001908080601f01602080910402602001604051908101604052809392919081815260200183838082843782019150505050505091905050610572565b005b341561030e57600080fd5b61033a600480803573ffffffffffffffffffffffffffffffffffffffff169060200190919050506106f6565b604051808060200180602001841515151581526020018381038352868181546001816001161561010002031660029004815260200191508054600181600116156101000203166002900480156103d15780601f106103a6576101008083540402835291602001916103d1565b820191906000526020600020905b8154815290600101906020018083116103b457829003601f168201915b50508381038252858181546001816001161561010002031660029004815260200191508054600181600116156101000203166002900480156104545780601f1061042957610100808354040283529160200191610454565b820191906000526020600020905b81548152906001019060200180831161043757829003601f168201915b50509550505050505060405180910390f35b341561047157600080fd5b61049d600480803573ffffffffffffffffffffffffffffffffffffffff1690602001909190505061072b565b005b60008054600181600116156101000203166002900480601f0160208091040260200160405190810160405280929190818152602001828054600181600116156101000203166002900480156105355780601f1061050a57610100808354040283529160200191610535565b820191906000526020600020905b81548152906001019060200180831161051857829003601f168201915b505050505081565b6002602052806000526040600020600091509050806000019080600101908060020160009054906101000a900460ff16905083565b60001515600160003373ffffffffffffffffffffffffffffffffffffffff1673ffffffffffffffffffffffffffffffffffffffff16815260200190815260200160002060020160009054906101000a900460ff1615151415156105d457600080fd5b60606040519081016040528083815260200182815260200160011515815250600160003373ffffffffffffffffffffffffffffffffffffffff1673ffffffffffffffffffffffffffffffffffffffff168152602001908152602001600020600082015181600001908051906020019061064e929190610967565b50602082015181600101908051906020019061066b929190610967565b5060408201518160020160006101000a81548160ff0219169083151502179055509050507f229d071f26d79adede95831f426495f26ce1a41bb2ae6970dfd5fa70ace1643833604051808273ffffffffffffffffffffffffffffffffffffffff1673ffffffffffffffffffffffffffffffffffffffff16815260200191505060405180910390a15050565b6001602052806000526040600020600091509050806000019080600101908060020160009054906101000a900460ff16905083565b60011515600160008373ffffffffffffffffffffffffffffffffffffffff1673ffffffffffffffffffffffffffffffffffffffff16815260200190815260200160002060020160009054906101000a900460ff16151514151561078d57600080fd5b600160008273ffffffffffffffffffffffffffffffffffffffff1673ffffffffffffffffffffffffffffffffffffffff168152602001908152602001600020600260003373ffffffffffffffffffffffffffffffffffffffff1673ffffffffffffffffffffffffffffffffffffffff168152602001908152602001600020600082018160000190805460018160011615610100020316600290046108329291906109e7565b506001820181600101908054600181600116156101000203166002900461085a9291906109e7565b506002820160009054906101000a900460ff168160020160006101000a81548160ff021916908315150217905550905050600160008273ffffffffffffffffffffffffffffffffffffffff1673ffffffffffffffffffffffffffffffffffffffff168152602001908152602001600020600080820160006108db9190610a6e565b6001820160006108eb9190610a6e565b6002820160006101000a81549060ff021916905550507fbd2bd570c963e5fe6bdc6422e5741c710099e75c6d44b6c73e6acc397429bdf733604051808273ffffffffffffffffffffffffffffffffffffffff1673ffffffffffffffffffffffffffffffffffffffff16815260200191505060405180910390a150565b828054600181600116156101000203166002900490600052602060002090601f016020900481019282601f106109a857805160ff19168380011785556109d6565b828001600101855582156109d6579182015b828111156109d55782518255916020019190600101906109ba565b5b5090506109e39190610ab6565b5090565b828054600181600116156101000203166002900490600052602060002090601f016020900481019282601f10610a205780548555610a5d565b82800160010185558215610a5d57600052602060002091601f016020900482015b82811115610a5c578254825591600101919060010190610a41565b5b509050610a6a9190610ab6565b5090565b50805460018160011615610100020316600290046000825580601f10610a945750610ab3565b601f016020900490600052602060002090810190610ab29190610ab6565b5b50565b610ad891905b80821115610ad4576000816000905550600101610abc565b5090565b905600a165627a7a723058200db565c26a2198437ae96696c0425ee4a1b5ce4e239c31fcba8781a73186f1b10029",
  "source": "pragma solidity ^0.4.12;\n\ncontract Academy {\n    \n    struct Student {\n        string email;\n        string fullname;\n        bool enrolled;\n    }\n    \n    string public name;\n    mapping(address => Student) public students;\n    mapping(address => Student) public graduates;\n    \n    event Enroll(address student);\n    event Graduate(address student);\n    \n    function Academy(string _name) public {\n        name = _name;\n    }\n\n    function enroll(string _email, string _fullname) public {\n        require(students[msg.sender].enrolled == false);\n        students[msg.sender] = Student({ email: _email, fullname: _fullname, enrolled: true });\n\n        Enroll(msg.sender);\n    }\n\n    function graduate(address _student) public {\n        require(students[_student].enrolled == true);\n        graduates[msg.sender] = students[_student];\n        delete students[_student];\n\n        Graduate(msg.sender);\n    }\n}",
  "sourcePath": "/Users/red/Desktop/academy/contracts/Academy.sol",
  "compiler": {
    "name": "solc",
    "version": "0.4.18+commit.9cf6e910.Emscripten.clang"
  },
  "schemaVersion": "1.0.1",
  "updatedAt": "2018-01-25T03:58:00.599Z"
}