{
  "contractName": "Academy",
  "abi": [
    {
      "constant": true,
      "inputs": [],
      "name": "name",
      "outputs": [
        {
          "name": "",
          "type": "string"
        }
      ],
      "payable": false,
      "stateMutability": "view",
      "type": "function"
    },
    {
      "constant": true,
      "inputs": [
        {
          "name": "",
          "type": "address"
        }
      ],
      "name": "graduates",
      "outputs": [
        {
          "name": "enrolled",
          "type": "bool"
        }
      ],
      "payable": false,
      "stateMutability": "view",
      "type": "function"
    },
    {
      "constant": false,
      "inputs": [],
      "name": "claimOwnership",
      "outputs": [],
      "payable": false,
      "stateMutability": "nonpayable",
      "type": "function"
    },
    {
      "constant": true,
      "inputs": [],
      "name": "owner",
      "outputs": [
        {
          "name": "",
          "type": "address"
        }
      ],
      "payable": false,
      "stateMutability": "view",
      "type": "function"
    },
    {
      "constant": true,
      "inputs": [
        {
          "name": "",
          "type": "address"
        }
      ],
      "name": "students",
      "outputs": [
        {
          "name": "enrolled",
          "type": "bool"
        }
      ],
      "payable": false,
      "stateMutability": "view",
      "type": "function"
    },
    {
      "constant": true,
      "inputs": [
        {
          "name": "_student",
          "type": "address"
        }
      ],
      "name": "didAttend",
      "outputs": [
        {
          "components": [
            {
              "name": "enrolled",
              "type": "bool"
            }
          ],
          "name": "",
          "type": "tuple"
        }
      ],
      "payable": false,
      "stateMutability": "view",
      "type": "function"
    },
    {
      "constant": true,
      "inputs": [],
      "name": "pendingOwner",
      "outputs": [
        {
          "name": "",
          "type": "address"
        }
      ],
      "payable": false,
      "stateMutability": "view",
      "type": "function"
    },
    {
      "constant": false,
      "inputs": [],
      "name": "enroll",
      "outputs": [],
      "payable": false,
      "stateMutability": "nonpayable",
      "type": "function"
    },
    {
      "constant": true,
      "inputs": [
        {
          "name": "_student",
          "type": "address"
        }
      ],
      "name": "didGraduate",
      "outputs": [
        {
          "components": [
            {
              "name": "enrolled",
              "type": "bool"
            }
          ],
          "name": "",
          "type": "tuple"
        }
      ],
      "payable": false,
      "stateMutability": "view",
      "type": "function"
    },
    {
      "constant": false,
      "inputs": [
        {
          "name": "newOwner",
          "type": "address"
        }
      ],
      "name": "transferOwnership",
      "outputs": [],
      "payable": false,
      "stateMutability": "nonpayable",
      "type": "function"
    },
    {
      "constant": false,
      "inputs": [
        {
          "name": "_student",
          "type": "address"
        }
      ],
      "name": "graduate",
      "outputs": [],
      "payable": false,
      "stateMutability": "nonpayable",
      "type": "function"
    },
    {
      "inputs": [
        {
          "name": "_name",
          "type": "string"
        }
      ],
      "payable": false,
      "stateMutability": "nonpayable",
      "type": "constructor"
    },
    {
      "anonymous": false,
      "inputs": [
        {
          "indexed": false,
          "name": "student",
          "type": "address"
        }
      ],
      "name": "Enroll",
      "type": "event"
    },
    {
      "anonymous": false,
      "inputs": [
        {
          "indexed": false,
          "name": "student",
          "type": "address"
        }
      ],
      "name": "Graduate",
      "type": "event"
    },
    {
      "anonymous": false,
      "inputs": [
        {
          "indexed": true,
          "name": "previousOwner",
          "type": "address"
        },
        {
          "indexed": true,
          "name": "newOwner",
          "type": "address"
        }
      ],
      "name": "OwnershipTransferred",
      "type": "event"
    }
  ],
  "bytecode": "0x6060604052341561000f57600080fd5b604051610ddf380380610ddf83398101604052808051820191905050336000806101000a81548173ffffffffffffffffffffffffffffffffffffffff021916908373ffffffffffffffffffffffffffffffffffffffff1602179055508060029080519060200190610081929190610088565b505061012d565b828054600181600116156101000203166002900490600052602060002090601f016020900481019282601f106100c957805160ff19168380011785556100f7565b828001600101855582156100f7579182015b828111156100f65782518255916020019190600101906100db565b5b5090506101049190610108565b5090565b61012a91905b8082111561012657600081600090555060010161010e565b5090565b90565b610ca38061013c6000396000f3006060604052600436106100af576000357c0100000000000000000000000000000000000000000000000000000000900463ffffffff16806306fdde03146100b4578063178f14a9146101425780634e71e0c8146101935780638da5cb5b146101a8578063a6c807a9146101fd578063cb151acb1461024e578063e30c39781461029b578063e65f2a7e146102f0578063e96a5edd14610305578063f2fde38b14610352578063ff6d8d051461038b575b600080fd5b34156100bf57600080fd5b6100c76103c4565b6040518080602001828103825283818151815260200191508051906020019080838360005b838110156101075780820151818401526020810190506100ec565b50505050905090810190601f1680156101345780820380516001836020036101000a031916815260200191505b509250505060405180910390f35b341561014d57600080fd5b610179600480803573ffffffffffffffffffffffffffffffffffffffff16906020019091905050610462565b604051808215151515815260200191505060405180910390f35b341561019e57600080fd5b6101a661048d565b005b34156101b357600080fd5b6101bb61062c565b604051808273ffffffffffffffffffffffffffffffffffffffff1673ffffffffffffffffffffffffffffffffffffffff16815260200191505060405180910390f35b341561020857600080fd5b610234600480803573ffffffffffffffffffffffffffffffffffffffff16906020019091905050610651565b604051808215151515815260200191505060405180910390f35b341561025957600080fd5b610285600480803573ffffffffffffffffffffffffffffffffffffffff1690602001909190505061067c565b6040518082815260200191505060405180910390f35b34156102a657600080fd5b6102ae61072d565b604051808273ffffffffffffffffffffffffffffffffffffffff1673ffffffffffffffffffffffffffffffffffffffff16815260200191505060405180910390f35b34156102fb57600080fd5b610303610753565b005b341561031057600080fd5b61033c600480803573ffffffffffffffffffffffffffffffffffffffff169060200190919050506108ea565b6040518082815260200191505060405180910390f35b341561035d57600080fd5b610389600480803573ffffffffffffffffffffffffffffffffffffffff1690602001909190505061099b565b005b341561039657600080fd5b6103c2600480803573ffffffffffffffffffffffffffffffffffffffff16906020019091905050610a3a565b005b60028054600181600116156101000203166002900480601f01602080910402602001604051908101604052809291908181526020018280546001816001161561010002031660029004801561045a5780601f1061042f5761010080835404028352916020019161045a565b820191906000526020600020905b81548152906001019060200180831161043d57829003601f168201915b505050505081565b60046020528060005260406000206000915090508060000160009054906101000a900460ff16905081565b600160009054906101000a900473ffffffffffffffffffffffffffffffffffffffff1673ffffffffffffffffffffffffffffffffffffffff163373ffffffffffffffffffffffffffffffffffffffff161415156104e957600080fd5b600160009054906101000a900473ffffffffffffffffffffffffffffffffffffffff1673ffffffffffffffffffffffffffffffffffffffff166000809054906101000a900473ffffffffffffffffffffffffffffffffffffffff1673ffffffffffffffffffffffffffffffffffffffff167f8be0079c531659141344cd1fd0a4f28419497f9722a3daafe3b4186f6b6457e060405160405180910390a3600160009054906101000a900473ffffffffffffffffffffffffffffffffffffffff166000806101000a81548173ffffffffffffffffffffffffffffffffffffffff021916908373ffffffffffffffffffffffffffffffffffffffff1602179055506000600160006101000a81548173ffffffffffffffffffffffffffffffffffffffff021916908373ffffffffffffffffffffffffffffffffffffffff160217905550565b6000809054906101000a900473ffffffffffffffffffffffffffffffffffffffff1681565b60036020528060005260406000206000915090508060000160009054906101000a900460ff16905081565b610684610c61565b600073ffffffffffffffffffffffffffffffffffffffff168273ffffffffffffffffffffffffffffffffffffffff16141515156106c057600080fd5b600360008373ffffffffffffffffffffffffffffffffffffffff1673ffffffffffffffffffffffffffffffffffffffff168152602001908152602001600020602060405190810160405290816000820160009054906101000a900460ff1615151515815250509050919050565b600160009054906101000a900473ffffffffffffffffffffffffffffffffffffffff1681565b6000809054906101000a900473ffffffffffffffffffffffffffffffffffffffff1673ffffffffffffffffffffffffffffffffffffffff163373ffffffffffffffffffffffffffffffffffffffff161415156107ae57600080fd5b60001515600360003373ffffffffffffffffffffffffffffffffffffffff1673ffffffffffffffffffffffffffffffffffffffff16815260200190815260200160002060000160009054906101000a900460ff16151514151561081057600080fd5b60206040519081016040528060011515815250600360003373ffffffffffffffffffffffffffffffffffffffff1673ffffffffffffffffffffffffffffffffffffffff16815260200190815260200160002060008201518160000160006101000a81548160ff0219169083151502179055509050507f229d071f26d79adede95831f426495f26ce1a41bb2ae6970dfd5fa70ace1643833604051808273ffffffffffffffffffffffffffffffffffffffff1673ffffffffffffffffffffffffffffffffffffffff16815260200191505060405180910390a1565b6108f2610c61565b600073ffffffffffffffffffffffffffffffffffffffff168273ffffffffffffffffffffffffffffffffffffffff161415151561092e57600080fd5b600460008373ffffffffffffffffffffffffffffffffffffffff1673ffffffffffffffffffffffffffffffffffffffff168152602001908152602001600020602060405190810160405290816000820160009054906101000a900460ff1615151515815250509050919050565b6000809054906101000a900473ffffffffffffffffffffffffffffffffffffffff1673ffffffffffffffffffffffffffffffffffffffff163373ffffffffffffffffffffffffffffffffffffffff161415156109f657600080fd5b80600160006101000a81548173ffffffffffffffffffffffffffffffffffffffff021916908373ffffffffffffffffffffffffffffffffffffffff16021790555050565b6000809054906101000a900473ffffffffffffffffffffffffffffffffffffffff1673ffffffffffffffffffffffffffffffffffffffff163373ffffffffffffffffffffffffffffffffffffffff16141515610a9557600080fd5b60011515600360008373ffffffffffffffffffffffffffffffffffffffff1673ffffffffffffffffffffffffffffffffffffffff16815260200190815260200160002060000160009054906101000a900460ff161515141515610af757600080fd5b600360008273ffffffffffffffffffffffffffffffffffffffff1673ffffffffffffffffffffffffffffffffffffffff168152602001908152602001600020600460003373ffffffffffffffffffffffffffffffffffffffff1673ffffffffffffffffffffffffffffffffffffffff1681526020019081526020016000206000820160009054906101000a900460ff168160000160006101000a81548160ff021916908315150217905550905050600360008273ffffffffffffffffffffffffffffffffffffffff1673ffffffffffffffffffffffffffffffffffffffff168152602001908152602001600020600080820160006101000a81549060ff021916905550507fbd2bd570c963e5fe6bdc6422e5741c710099e75c6d44b6c73e6acc397429bdf733604051808273ffffffffffffffffffffffffffffffffffffffff1673ffffffffffffffffffffffffffffffffffffffff16815260200191505060405180910390a150565b60206040519081016040528060001515815250905600a165627a7a72305820aca2a6982d3bd96223fa06a77b56bab176155441d9c87cd9e20ce384948cc5eb0029",
  "source": "pragma solidity ^0.4.17;\n\nimport 'zeppelin-solidity/contracts/ownership/Claimable.sol';\n\ncontract Academy is Claimable {\n    \n    struct Student {\n        bool enrolled;\n    }\n    \n    string public name;\n    mapping(address => Student) public students;\n    mapping(address => Student) public graduates;\n    \n    event Enroll(address student);\n    event Graduate(address student);\n    \n    function Academy(string _name) public {\n        name = _name;\n    }\n\n    function enroll() public onlyOwner {\n        require(students[msg.sender].enrolled == false);\n        students[msg.sender] = Student({ enrolled: true });\n\n        Enroll(msg.sender);\n    }\n\n    function graduate(address _student) public onlyOwner {\n        require(students[_student].enrolled == true);\n        graduates[msg.sender] = students[_student];\n        delete students[_student];\n\n        Graduate(msg.sender);\n    }\n\n    function didAttend(address _student) public view returns (Student) {\n        require(_student != address(0));\n        return students[_student];\n    }\n\n    function didGraduate(address _student) public view returns (Student) {\n        require(_student != address(0));\n        return graduates[_student];\n    }\n}",
  "sourcePath": "/Users/MK/Desktop/blockchain-academy/contracts/Academy.sol",
  "compiler": {
    "name": "solc",
    "version": "0.4.18+commit.9cf6e910.Emscripten.clang"
  },
  "schemaVersion": "1.0.1",
  "updatedAt": "2018-01-27T16:59:57.311Z"
}