{
  "contractName": "AcademyFactory",
  "abi": [
    {
      "constant": false,
      "inputs": [
        {
          "name": "name",
          "type": "bytes32"
        }
      ],
      "name": "createAcademy",
      "outputs": [
        {
          "name": "academyAddress",
          "type": "address"
        }
      ],
      "payable": false,
      "stateMutability": "nonpayable",
      "type": "function"
    }
  ],
  "bytecode": "0x6060604052341561000f57600080fd5b610e098061001e6000396000f300606060405260043610610041576000357c0100000000000000000000000000000000000000000000000000000000900463ffffffff168063b9d2d5d614610046575b600080fd5b341561005157600080fd5b61006b6004808035600019169060200190919050506100ad565b604051808273ffffffffffffffffffffffffffffffffffffffff1673ffffffffffffffffffffffffffffffffffffffff16815260200191505060405180910390f35b6000816100b86100e7565b808260001916600019168152602001915050604051809103906000f08015156100e057600080fd5b9050919050565b604051610ce6806100f88339019056006060604052341561000f57600080fd5b604051602080610ce683398101604052808051906020019091905050336000806101000a81548173ffffffffffffffffffffffffffffffffffffffff021916908373ffffffffffffffffffffffffffffffffffffffff160217905550806002816000191690555050610c60806100866000396000f3006060604052600436106100ba576000357c0100000000000000000000000000000000000000000000000000000000900463ffffffff16806306fdde03146100bc578063178f14a9146100ed57806343d726d61461013e5780634e71e0c8146101535780638da5cb5b14610168578063a6c807a9146101bd578063cb151acb1461020e578063e30c39781461025b578063e65f2a7e146102b0578063e96a5edd146102c5578063f2fde38b14610312578063ff6d8d051461034b575b005b34156100c757600080fd5b6100cf610384565b60405180826000191660001916815260200191505060405180910390f35b34156100f857600080fd5b610124600480803573ffffffffffffffffffffffffffffffffffffffff1690602001909190505061038a565b604051808215151515815260200191505060405180910390f35b341561014957600080fd5b6101516103b5565b005b341561015e57600080fd5b61016661044a565b005b341561017357600080fd5b61017b6105e9565b604051808273ffffffffffffffffffffffffffffffffffffffff1673ffffffffffffffffffffffffffffffffffffffff16815260200191505060405180910390f35b34156101c857600080fd5b6101f4600480803573ffffffffffffffffffffffffffffffffffffffff1690602001909190505061060e565b604051808215151515815260200191505060405180910390f35b341561021957600080fd5b610245600480803573ffffffffffffffffffffffffffffffffffffffff16906020019091905050610639565b6040518082815260200191505060405180910390f35b341561026657600080fd5b61026e6106ea565b604051808273ffffffffffffffffffffffffffffffffffffffff1673ffffffffffffffffffffffffffffffffffffffff16815260200191505060405180910390f35b34156102bb57600080fd5b6102c3610710565b005b34156102d057600080fd5b6102fc600480803573ffffffffffffffffffffffffffffffffffffffff169060200190919050506108a7565b6040518082815260200191505060405180910390f35b341561031d57600080fd5b610349600480803573ffffffffffffffffffffffffffffffffffffffff16906020019091905050610958565b005b341561035657600080fd5b610382600480803573ffffffffffffffffffffffffffffffffffffffff169060200190919050506109f7565b005b60025481565b60046020528060005260406000206000915090508060000160009054906101000a900460ff16905081565b6000809054906101000a900473ffffffffffffffffffffffffffffffffffffffff1673ffffffffffffffffffffffffffffffffffffffff163373ffffffffffffffffffffffffffffffffffffffff1614151561041057600080fd5b6000809054906101000a900473ffffffffffffffffffffffffffffffffffffffff1673ffffffffffffffffffffffffffffffffffffffff16ff5b600160009054906101000a900473ffffffffffffffffffffffffffffffffffffffff1673ffffffffffffffffffffffffffffffffffffffff163373ffffffffffffffffffffffffffffffffffffffff161415156104a657600080fd5b600160009054906101000a900473ffffffffffffffffffffffffffffffffffffffff1673ffffffffffffffffffffffffffffffffffffffff166000809054906101000a900473ffffffffffffffffffffffffffffffffffffffff1673ffffffffffffffffffffffffffffffffffffffff167f8be0079c531659141344cd1fd0a4f28419497f9722a3daafe3b4186f6b6457e060405160405180910390a3600160009054906101000a900473ffffffffffffffffffffffffffffffffffffffff166000806101000a81548173ffffffffffffffffffffffffffffffffffffffff021916908373ffffffffffffffffffffffffffffffffffffffff1602179055506000600160006101000a81548173ffffffffffffffffffffffffffffffffffffffff021916908373ffffffffffffffffffffffffffffffffffffffff160217905550565b6000809054906101000a900473ffffffffffffffffffffffffffffffffffffffff1681565b60036020528060005260406000206000915090508060000160009054906101000a900460ff16905081565b610641610c1e565b600073ffffffffffffffffffffffffffffffffffffffff168273ffffffffffffffffffffffffffffffffffffffff161415151561067d57600080fd5b600360008373ffffffffffffffffffffffffffffffffffffffff1673ffffffffffffffffffffffffffffffffffffffff168152602001908152602001600020602060405190810160405290816000820160009054906101000a900460ff1615151515815250509050919050565b600160009054906101000a900473ffffffffffffffffffffffffffffffffffffffff1681565b6000809054906101000a900473ffffffffffffffffffffffffffffffffffffffff1673ffffffffffffffffffffffffffffffffffffffff163373ffffffffffffffffffffffffffffffffffffffff1614151561076b57600080fd5b60001515600360003373ffffffffffffffffffffffffffffffffffffffff1673ffffffffffffffffffffffffffffffffffffffff16815260200190815260200160002060000160009054906101000a900460ff1615151415156107cd57600080fd5b60206040519081016040528060011515815250600360003373ffffffffffffffffffffffffffffffffffffffff1673ffffffffffffffffffffffffffffffffffffffff16815260200190815260200160002060008201518160000160006101000a81548160ff0219169083151502179055509050507f229d071f26d79adede95831f426495f26ce1a41bb2ae6970dfd5fa70ace1643833604051808273ffffffffffffffffffffffffffffffffffffffff1673ffffffffffffffffffffffffffffffffffffffff16815260200191505060405180910390a1565b6108af610c1e565b600073ffffffffffffffffffffffffffffffffffffffff168273ffffffffffffffffffffffffffffffffffffffff16141515156108eb57600080fd5b600460008373ffffffffffffffffffffffffffffffffffffffff1673ffffffffffffffffffffffffffffffffffffffff168152602001908152602001600020602060405190810160405290816000820160009054906101000a900460ff1615151515815250509050919050565b6000809054906101000a900473ffffffffffffffffffffffffffffffffffffffff1673ffffffffffffffffffffffffffffffffffffffff163373ffffffffffffffffffffffffffffffffffffffff161415156109b357600080fd5b80600160006101000a81548173ffffffffffffffffffffffffffffffffffffffff021916908373ffffffffffffffffffffffffffffffffffffffff16021790555050565b6000809054906101000a900473ffffffffffffffffffffffffffffffffffffffff1673ffffffffffffffffffffffffffffffffffffffff163373ffffffffffffffffffffffffffffffffffffffff16141515610a5257600080fd5b60011515600360008373ffffffffffffffffffffffffffffffffffffffff1673ffffffffffffffffffffffffffffffffffffffff16815260200190815260200160002060000160009054906101000a900460ff161515141515610ab457600080fd5b600360008273ffffffffffffffffffffffffffffffffffffffff1673ffffffffffffffffffffffffffffffffffffffff168152602001908152602001600020600460003373ffffffffffffffffffffffffffffffffffffffff1673ffffffffffffffffffffffffffffffffffffffff1681526020019081526020016000206000820160009054906101000a900460ff168160000160006101000a81548160ff021916908315150217905550905050600360008273ffffffffffffffffffffffffffffffffffffffff1673ffffffffffffffffffffffffffffffffffffffff168152602001908152602001600020600080820160006101000a81549060ff021916905550507fbd2bd570c963e5fe6bdc6422e5741c710099e75c6d44b6c73e6acc397429bdf733604051808273ffffffffffffffffffffffffffffffffffffffff1673ffffffffffffffffffffffffffffffffffffffff16815260200191505060405180910390a150565b60206040519081016040528060001515815250905600a165627a7a7230582099182b3099a2f574fe423a0080752c8a6d3321941739361f433339777346f40f0029a165627a7a72305820d1aa3f9232aa81ac93f637466f1d63f13d5622b4dd2fedb73ba072c4fdea480f0029",
  "source": "pragma solidity ^0.4.17;\n\nimport './Academy.sol';\n\ncontract AcademyFactory {\n    function createAcademy(bytes32 name)\n       public\n       returns (Academy academyAddress)\n    {\n        // Create a new Token contract and return its address.\n        // From the JavaScript side, the return type is simply\n        // `address`, as this is the closest type available in\n        // the ABI.\n        return new Academy(name);\n    }\n}",
  "sourcePath": "/Users/MK/Desktop/blockchain-academy/contracts/AcademyFactory.sol",
  "compiler": {
    "name": "solc",
    "version": "0.4.18+commit.9cf6e910.Emscripten.clang"
  },
  "schemaVersion": "1.0.1",
  "updatedAt": "2018-01-28T05:15:39.874Z"
}